:0800000000400020090000008F
:1000080000F042F8FEE7000010B500F011F810BD4E
:1000180010B500F01AF810BD70B5002907D004001B
:1000280045182078013400F010F8AC42F9D170BDC1
:10003800094804210160094809490160094801216A
:100048000160094801210160704708490860084AB1
:100058001368002BFBD07047002500402425004082
:1000680000E0D70108200040002000401C25004087
:100078001C210040020030B5024B32CB32C232CBD9
:1000880032C230BD8002000030B58DB0FFF7BCFF32
:100098006846FFF7EFFF06AC059D2000FFF7EAFF73
:1000A8002900089A024800F005F80DB030BDC04696
:1000B8004C0200000FB4F0B55746DE464E464546A2
:1000C800E0B583B00CAB10CB002701932378002B4D
:1000D80024D0424A9046FF2291464246D21B92467D
:1000E800252B27D16378252B23D0632B49D0732B5D
:1000F80057D0200000F080F8834682450CD32500B5
:100108002618002803D138E00135AE4236D02878C9
:1001180000F066F80130F7D101277F42380003B0BC
:10012800F0BCBB46B246A946A046F0BC08BC04B029
:100138001847013463780126651C002B05D149E076
:100148006B7801350136002B01D0252BF8D1B2454B
:10015800E2D3002E0BD0A3199A4602E0013454458D
:1001680005D0207800F03CF80130F7D1D4E72C0016
:10017800BF192378002BB0D1D0E7260034005F44A4
:10018800F7E7019B02341A1D186853460192002BA9
:10019800C2D04B46184000F023F80130BCD00137DC
:1001A800E7E7019B02341D681A1D2800019200F040
:1001B80023F806008245AFD32B189A46002803D1AE
:1001C800D6E701355545D3D0287800F009F8013035
:1001D800F7D1A1E75346002BBDD19DE7FFFFFF7F75
:1001E80010B582B06B4604000121D81D0470FFF7DA
:1001F80013FF200002B010BD037802000020002B7E
:0C02080003D00130135C002BFBD17047C9
:1002140041726D20436F727465782D4D300000007B
:1002240041524D205468756D622D31004242432085
:100234006D6963726F3A6269742076310000000060
:10024400302E332E310000001B5B481B5B324A1BEF
:100254005B33336D2D2D2D2041534B2E49474220C6
:100264002D2D2D0A2D2D2056657273696F6E202554
:1002740073202D2D0A2D202573202D00140200003B
:1002840024020000300200000000040000400000CE
:040294004402000020
:0400000300000009F0
:00000001FF
