:08000000004000206B0000002D
:10000800474C00F023F83CE0013400F01FF838E0DA
:1000180020783178884206D1002802D00134013690
:10002800F6E701207047002070473E480268002A22
:10003800FCD03D4801783B480022026070473B48AD
:1000480001603B4A1368002BFBD0704721780029D8
:1000580006D000B5FFF7F3FF20BCAE460134F5E744
:1000680070473448042101603348344901603448FA
:1000780001210160334801210160334CFFF7E6FF9D
:10008800324C324C0A21FFF7DAFF3E21FFF7D7FF47
:100098002021FFF7D4FFFFF7C8FF0D2906D07F29DD
:1000A8002DD02170FFF7CBFF0134F4E70021217038
:1000B8000A21FFF7C4FF254C0DE0244C244D2E687F
:1000C8002448864211D06F68FFF7A2FF012800D1AB
:1000D80038470835F3E7217801340029EDD0202985
:1000E800F9D1013C00212170E7E72721FFF7A7FF9D
:1000F800164CFFF7ABFF184CFFF7A8FFC1E7134DED
:10010800AC42C8D0013C002121700821FFF797FFBD
:100118002021FFF794FF0821FFF791FFBBE70000BC
:10012800EB01000008210040182500401C25004074
:100138001C210040002500402425004000E0D70194
:10014800082000400020004064010000000000205A
:0C0158005C020000EFBEADDEBD01000047
:100164002D2D2D2041534B2E494742202D2D2D0A54
:100174002D2D20424243204D6963726F3A426974C7
:10018400202D2D0A2D2056657273696F6E20302E36
:10019400312E30202D0A54797065202768656C70E3
:1001A4002720666F722061206C697374206F66204B
:1001B400636F6D6D616E64730027206973206E6FC9
:1001C4007420746865206E616D65206F6620616EB1
:1001D400206F70657261626C6520636F6D6D616E16
:1001E400640068656C7000434F4D4D414E44203AA5
:1001F4002046554E4354494F4E0A68656C70203A68
:1002040020646973706C6179732061206C69737404
:10021400206F6620636F6D6D616E64730A65636839
:100224006F203C737472696E673E203A2070726965
:100234006E747320746865203C737472696E673ED3
:1002440020746F20746865207465726D696E616CCA
:10025400006563686F000000E6010000090000000B
:0C0264005502000011000000EFBEADDEEE
:040000030000006A8F
:00000001FF
