:08000000004000206300000035
:100008003F4C00F01FF838E020783178884206D15C
:10001800002802D001340136F6E70120704700209D
:10002800704738480268002AFCD0374801783548BC
:1000380000220260704735480160354A1368002B7A
:10004800FBD070472178002906D000B5FFF7F3FFF1
:1000580020BCAE460134F5E770472E480421016004
:100068002D482E4901602E48012101602D480121AB
:1000780001602D4CFFF7E6FF2C4C2C4C0A21FFF7B2
:10008800DAFF3E21FFF7D7FF2021FFF7D4FFFFF764
:10009800C8FF0D2906D07F2921D02170FFF7CBFF9B
:1000A8000134F4E7002121700A21FFF7C4FF1F4C37
:1000B8001F4D2E681F48864207D06F68FFF7A4FFC0
:1000C800012800D138470835F3E72721FFF7B3FFA8
:1000D800164CFFF7B7FF184CFFF7B4FFCDE7134DE9
:1000E800AC42D4D0013C002121700821FFF7A3FFC6
:1000F8002021FFF7A0FF0821FFF79DFFC7E70000B9
:10010800CB01000008210040182500401C250040B4
:100118001C210040002500402425004000E0D701B4
:10012800082000400020004044010000000000209A
:0C01380004020000EFBEADDE9D010000DF
:100144002D2D2D2041534B2E494742202D2D2D0A74
:100154002D2D20424243204D6963726F3A426974E7
:10016400202D2D0A2D2056657273696F6E20302E56
:10017400312E30202D0A54797065202768656C7003
:100184002720666F722061206C697374206F66206B
:10019400636F6D6D616E64730027206973206E6FE9
:1001A4007420746865206E616D65206F6620616ED1
:1001B400206F70657261626C6520636F6D6D616E36
:1001C400640068656C7000434F4D4D414E44203AC5
:1001D4002046554E4354494F4E0A68656C70203A88
:1001E40020646973706C6179732061206C69737425
:1001F400206F6620636F6D6D616E64730000000094
:0C020400C601000009000000EFBEADDEE6
:040000030000006297
:00000001FF
